:020000000ffff0
:020001000ffef0
:020002000ffaf3
:020003000ff4f8
:020004000feb00
:020005000fe00a
:020006000fd316
:020007000fc325
:020008000fb037
:020009000f9c4a
:02000a000f8461
:02000b000f6b79
:02000c000f4f94
:02000d000f30b2
:02000e000f10d1
:02000f000eedf4
:020010000ec719
:020011000ea03f
:020012000e7668
:020013000e4a93
:020014000e1bc1
:020015000debf1
:020016000db823
:020017000d8456
:020018000d4d8c
:020019000d14c4
:02001a000cd9ff
:02001b000c9c3b
:02001c000c5d79
:02001d000c1db8
:02001e000bdafb
:02001f000b963e
:020020000b5083
:020021000b08ca
:020022000abe14
:020023000a735e
:020024000a26aa
:0200250009d7f9
:02002600098748
:02002700093698
:0200280008e3eb
:02002900088f3e
:02002a00083993
:02002b0007e2ea
:02002c00078a41
:02002d00073199
:02002e0006d7f3
:02002f00067b4e
:02003000061fa9
:0200310005c206
:02003200056463
:020033000505c1
:0200340004a521
:02003500044481
:0200360003e3e2
:02003700038143
:02003800031fa4
:0200390002bc07
:02003a00025969
:02003b0001f5cd
:02003c00019130
:02003d00012d93
:02003e0000c9f7
:02003f0000645b
:020040000000be
:020041001f9c02
:020042001f3766
:020043001ed3ca
:020044001e6f2d
:020045001e0b90
:020046001da7f4
:020047001d4456
:020048001ce1b9
:020049001c7f1a
:02004a001c1d7b
:02004b001bbcdc
:02004c001b5b3c
:02004d001afb9c
:02004e001a9cfa
:02004f001a3e57
:0200500019e1b4
:0200510019850f
:0200520019296a
:0200530018cfc4
:0200540018761c
:02005500181e73
:0200560017c7ca
:0200570017711f
:02005800171d72
:0200590016cac5
:02005a00167915
:02005b00162964
:02005c0015dab3
:02005d00158dff
:02005e00154249
:02005f0014f893
:0200600014b0da
:02006100146a1f
:02006200142662
:0200630013e3a5
:0200640013a3e4
:02006500136422
:0200660013275e
:0200670012ec99
:0200680012b3d1
:02006900127c07
:02006a0012483a
:02006b0012156c
:02006c0011e59c
:02006d0011b6ca
:02006e00118af5
:02006f0011601e
:02007000113944
:02007100111369
:0200720010f08c
:0200730010d0ab
:0200740010b1c9
:020075001095e4
:02007600107cfc
:02007700106413
:02007800105026
:02007900103d38
:02007a00102d47
:02007b00102053
:02007c0010155d
:02007d00100c65
:02007e0010066a
:02007f0010026d
:0200800010016d
:0200810010026b
:02008200100666
:02008300100c5f
:02008400101555
:02008500102049
:02008600102d3b
:02008700103d2a
:02008800105016
:02008900106401
:02008a00107ce8
:02008b001095ce
:02008c0010b1b1
:02008d0010d091
:02008e0010f070
:02008f0011134b
:02009000113924
:020091001160fc
:02009200118ad1
:0200930011b6a4
:0200940011e574
:02009500121542
:0200960012480e
:02009700127cd9
:0200980012b3a1
:0200990012ec67
:02009a0013272a
:02009b001364ec
:02009c0013a3ac
:02009d0013e36b
:02009e00142626
:02009f00146ae1
:0200a00014b09a
:0200a10014f851
:0200a200154205
:0200a300158db9
:0200a40015da6b
:0200a50016291a
:0200a6001679c9
:0200a70016ca77
:0200a800171d22
:0200a9001771cd
:0200aa0017c776
:0200ab00181e1d
:0200ac001876c4
:0200ad0018cf6a
:0200ae0019290e
:0200af001985b1
:0200b00019e154
:0200b1001a3ef5
:0200b2001a9c96
:0200b3001afb36
:0200b4001b5bd4
:0200b5001bbc72
:0200b6001c1d0f
:0200b7001c7fac
:0200b8001ce149
:0200b9001d44e4
:0200ba001da780
:0200bb001e0b1a
:0200bc001e6fb5
:0200bd001ed350
:0200be001f37ea
:0200bf001f9c84
:0200c00000003e
:0200c1000064d9
:0200c20000c973
:0200c300012d0d
:0200c4000191a8
:0200c50001f543
:0200c6000259dd
:0200c70002bc79
:0200c800031f14
:0200c9000381b1
:0200ca0003e34e
:0200cb000444eb
:0200cc0004a589
:0200cd00050527
:0200ce000564c7
:0200cf0005c268
:0200d000061f09
:0200d100067bac
:0200d20006d74f
:0200d3000731f3
:0200d400078a99
:0200d50007e240
:0200d6000839e7
:0200d700088f90
:0200d80008e33b
:0200d9000936e6
:0200da00098794
:0200db0009d743
:0200dc000a26f2
:0200dd000a73a4
:0200de000abe58
:0200df000b080c
:0200e0000b50c3
:0200e1000b967c
:0200e2000bda37
:0200e3000c1df2
:0200e4000c5db1
:0200e5000c9c71
:0200e6000cd933
:0200e7000d14f6
:0200e8000d4dbc
:0200e9000d8484
:0200ea000db84f
:0200eb000deb1b
:0200ec000e1be9
:0200ed000e4ab9
:0200ee000e768c
:0200ef000ea061
:0200f0000ec739
:0200f1000eed12
:0200f2000f10ed
:0200f3000f30cc
:0200f4000f4fac
:0200f5000f6b8f
:0200f6000f8475
:0200f7000f9c5c
:0200f8000fb047
:0200f9000fc333
:0200fa000fd322
:0200fb000fe014
:0200fc000feb08
:0200fd000ff4fe
:0200fe000ffaf7
:0200ff000ffef2
:00000001FF
