:020000000ffff0
:020001000fffef
:020002000fffee
:020003000fffed
:020004000fffec
:020005000fffeb
:020006000fffea
:020007000fffe9
:020008000fffe8
:020009000fffe7
:02000a000fffe6
:02000b000fffe5
:02000c000fffe4
:02000d000fffe3
:02000e000fffe2
:02000f000fffe1
:020010000fffe0
:020011000fffdf
:020012000fffde
:020013000fffdd
:020014000fffdc
:020015000fffdb
:020016000fffda
:020017000fffd9
:020018000fffd8
:020019000fffd7
:02001a000fffd6
:02001b000fffd5
:02001c000fffd4
:02001d000fffd3
:02001e000fffd2
:02001f000fffd1
:020020000fffd0
:020021000fffcf
:020022000fffce
:020023000fffcd
:020024000fffcc
:020025000fffcb
:020026000fffca
:020027000fffc9
:020028000fffc8
:020029000fffc7
:02002a000fffc6
:02002b000fffc5
:02002c000fffc4
:02002d000fffc3
:02002e000fffc2
:02002f000fffc1
:020030000fffc0
:020031000fffbf
:020032000fffbe
:020033000fffbd
:020034000fffbc
:020035000fffbb
:020036000fffba
:020037000fffb9
:020038000fffb8
:020039000fffb7
:02003a000fffb6
:02003b000fffb5
:02003c000fffb4
:02003d000fffb3
:02003e000fffb2
:02003f000fffb1
:020040000fffb0
:020041000fffaf
:020042000fffae
:020043000fffad
:020044000fffac
:020045000fffab
:020046000fffaa
:020047000fffa9
:020048000fffa8
:020049000fffa7
:02004a000fffa6
:02004b000fffa5
:02004c000fffa4
:02004d000fffa3
:02004e000fffa2
:02004f000fffa1
:020050000fffa0
:020051000fff9f
:020052000fff9e
:020053000fff9d
:020054000fff9c
:020055000fff9b
:020056000fff9a
:020057000fff99
:020058000fff98
:020059000fff97
:02005a000fff96
:02005b000fff95
:02005c000fff94
:02005d000fff93
:02005e000fff92
:02005f000fff91
:020060000fff90
:020061000fff8f
:020062000fff8e
:020063000fff8d
:020064000fff8c
:020065000fff8b
:020066000fff8a
:020067000fff89
:020068000fff88
:020069000fff87
:02006a000fff86
:02006b000fff85
:02006c000fff84
:02006d000fff83
:02006e000fff82
:02006f000fff81
:020070000fff80
:020071000fff7f
:020072000fff7e
:020073000fff7d
:020074000fff7c
:020075000fff7b
:020076000fff7a
:020077000fff79
:020078000fff78
:020079000fff77
:02007a000fff76
:02007b000fff75
:02007c000fff74
:02007d000fff73
:02007e000fff72
:02007f000fff71
:020080000fff70
:020081000fff6f
:020082000fff6e
:020083000fff6d
:020084000fff6c
:020085000fff6b
:020086000fff6a
:020087000fff69
:020088000fff68
:020089000fff67
:02008a000fff66
:02008b000fff65
:02008c000fff64
:02008d000fff63
:02008e000fff62
:02008f000fff61
:020090000fff60
:020091000fff5f
:020092000fff5e
:020093000fff5d
:020094000fff5c
:020095000fff5b
:020096000fff5a
:020097000fff59
:020098000fff58
:020099000fff57
:02009a000fff56
:02009b000fff55
:02009c000fff54
:02009d000fff53
:02009e000fff52
:02009f000fff51
:0200a0000fff50
:0200a1000fff4f
:0200a2000fff4e
:0200a3000ffe4e
:0200a4000ffe4d
:0200a5000ffe4c
:0200a6000ffe4b
:0200a7000ffe4a
:0200a8000ffe49
:0200a9000ffe48
:0200aa000ffe47
:0200ab000ffe46
:0200ac000ffe45
:0200ad000ffe44
:0200ae000ffe43
:0200af000ffe42
:0200b0000ffe41
:0200b1000ffe40
:0200b2000ffe3f
:0200b3000ffe3e
:0200b4000ffe3d
:0200b5000ffe3c
:0200b6000ffe3b
:0200b7000ffe3a
:0200b8000ffe39
:0200b9000ffe38
:0200ba000ffe37
:0200bb000ffe36
:0200bc000ffe35
:0200bd000ffe34
:0200be000ffe33
:0200bf000ffe32
:0200c0000ffe31
:0200c1000ffe30
:0200c2000ffe2f
:0200c3000ffe2e
:0200c4000ffe2d
:0200c5000ffe2c
:0200c6000ffe2b
:0200c7000ffe2a
:0200c8000ffe29
:0200c9000ffe28
:0200ca000ffe27
:0200cb000ffe26
:0200cc000ffe25
:0200cd000ffe24
:0200ce000ffe23
:0200cf000ffe22
:0200d0000ffe21
:0200d1000ffe20
:0200d2000ffe1f
:0200d3000ffe1e
:0200d4000ffe1d
:0200d5000ffe1c
:0200d6000ffe1b
:0200d7000ffe1a
:0200d8000ffe19
:0200d9000ffe18
:0200da000ffe17
:0200db000ffe16
:0200dc000ffe15
:0200dd000ffe14
:0200de000ffe13
:0200df000ffe12
:0200e0000ffe11
:0200e1000ffe10
:0200e2000ffe0f
:0200e3000ffe0e
:0200e4000ffe0d
:0200e5000ffe0c
:0200e6000ffe0b
:0200e7000ffe0a
:0200e8000ffe09
:0200e9000ffe08
:0200ea000ffe07
:0200eb000ffe06
:0200ec000ffe05
:0200ed000ffe04
:0200ee000ffe03
:0200ef000ffe02
:0200f0000ffe01
:0200f1000ffe00
:0200f2000ffeff
:0200f3000ffefe
:0200f4000ffefd
:0200f5000ffefc
:0200f6000ffefb
:0200f7000ffefa
:0200f8000ffef9
:0200f9000ffef8
:0200fa000ffef7
:0200fb000ffef6
:0200fc000ffef5
:0200fd000ffef4
:0200fe000ffef3
:0200ff000ffef2
:00000001FF
